:10039E001203DD12036D12000E120026E50A24FB75
:1003AE0070F77E007F1E7D007B007A0079081202B6
:0703BE0090B285B2A180E2BC
:1003C5008E7A8F7BE57B457A600D120402E57B15FD
:0803D5007B70F1157A80ED2226
:080402007F6FAE071FEE70FAD8
:01040A0022CF
:06033500016200016300FB
:1003DD00759850758920758780758DF3758BF3D25F
:0603ED00ACD2AFD28E225B
:030023000200C711
:0F00C700C0E0C0D075D000C000C005C006C007A3
:1000D600AF99BF7A07E5627003756201E562D39452
:1000E6000040090562744C2562F8A607744C256227
:1000F600F8E664557052E56224FC654F704A7F014C
:10010600E56224FDFEEFC39E500F744E2FF8E6FD08
:10011600E5632DFD8D630F80E7744B2562F8E66578
:1001260063701FFFE56214FEEFC39E5015744E2FD9
:10013600F8E6FE74082FF8A606744E2FF876000F20
:0A01460080E2756200756300C29844
:0D015000D007D006D005D000D0D0D0E032CE
:10033B000D317A0A010300000000000000000008E4
:09034B00467A0503030101075580
:1002F900E4FFFEEFC39D5033ED14B50705745512A5
:10030900027EED24FEB50704EE12027EEFD39400BF
:1003190040051202652EFE120265F5993099FDC25B
:0B032900990F740129F9E43AFA80C82A
:0103340022A6
:0F03F3008F4A8D4B7B007A0079467D080202F914
:10036D00E4FF1202BCE4FF743E2FF8E6FE74352F55
:10037D00F8A606743E2FF8E6FDE53C2DFD8D3C0FED
:10038D00BF07E47B007A0079317D0D1202F97F0001
:01039D00223D
:1002BC00EF70167FF1FEAD070FA805E6FD743E2E1C
:1002CC00F8A6050EBE07EF801F7DF97C0FE4FE0D2E
:1002DC00EDAA0470010C14F5828A83E493FF743E3A
:0C02EC002EF8A6070EBE07E7E4F545FF5C
:0102F80022E3
:10035400066C7A030203085506727A0304040B55EB
:0803640006667A0305020B5541
:03000B000201E906
:1001E900C0E0C0F0C083C082C0D075D000C000C0DC
:0D01F90001C002C003C004C005C006C0075D
:10020600758CFE758AFE0565E56570020564B41099
:100216000DE564B42708756400756500B2A02086F4
:100226001020850DD2857B007A0079667D06120244
:10023600F920871030850DC2857B007A0079727DA2
:04024600061202F9A1
:10024A00D007D006D005D004D003D002D001D00008
:0B025A00D0D0D082D083D0F0D0E032B2
:10000E00438901758CFC758A18D2A9D2AFD28C2285
:1000260020821D7F0A7E001203C52082137D017F78
:10003600011203F3B2853082FD7D027F011203F3C4
:1000460020831D7F0A7E001203C52083137D017F56
:10005600021203F3B2853083FD7D027F021203F3A1
:1000660020801D7F0A7E001203C52080137D017F3C
:10007600031203F3B2853080FD7D027F031203F382
:1000860020841D7F0A7E001203C52084137D017F14
:10009600041203F3B2853084FD7D027F041203F35C
:1000A60020811D7F0A7E001203C52081137D017FFA
:1000B600051203F3B2853081FD7D027F051203F33D
:0100C6002217
:0300000002015D9D
:0C015D00787FE4F6D8FD75817B0201A4D8
:10026500BB010689828A83E0225002E722BBFE0297
:09027500E32289828A83E49322CA
:10027E00BB010689828A83F0225002F722BBFE015F
:02028E00F32259
:10029000EF4E6012EF60010EEDBB010B89828A8385
:1002A000F0A3DFFCDEFA2289F05007F709DFFCA992
:0C02B000F022BBFEFCF309DFFCA9F022E9
:1001690002039EE493A3F8E493A34003F68001F20B
:1001790008DFF48029E493A3F85407240CC8C33397
:10018900C4540F4420C8834004F456800146F6DF66
:10019900E4800B0102040810204080900335E47EBE
:1001A900019360BCA3FF543F30E509541FFEE4935B
:1001B900A360010ECF54C025E060A840B8E493A322
:1001C900FAE493A3F8E493A3C8C582C8CAC583CA4D
:1001D900F0A3C8C582C8CAC583CADFE9DEE780BE05
:01036C000090
:00000001FF
